{
  "abi": [
    {
      "inputs": [
        {
          "internalType": "uint256",
          "name": "favoriteNumber",
          "type": "uint256"
        },
        {
          "internalType": "string",
          "name": "name",
          "type": "string"
        }
      ],
      "name": "addPerson",
      "outputs": [],
      "stateMutability": "nonpayable",
      "type": "function"
    },
    {
      "inputs": [
        {
          "internalType": "uint256",
          "name": "",
          "type": "uint256"
        }
      ],
      "name": "listOfPeople",
      "outputs": [
        {
          "internalType": "uint256",
          "name": "favoriteNumber",
          "type": "uint256"
        },
        {
          "internalType": "string",
          "name": "name",
          "type": "string"
        }
      ],
      "stateMutability": "view",
      "type": "function"
    },
    {
      "inputs": [
        {
          "internalType": "string",
          "name": "",
          "type": "string"
        }
      ],
      "name": "nameToFavoriteNumber",
      "outputs": [
        {
          "internalType": "uint256",
          "name": "",
          "type": "uint256"
        }
      ],
      "stateMutability": "view",
      "type": "function"
    },
    {
      "inputs": [],
      "name": "retrieve",
      "outputs": [
        {
          "internalType": "uint256",
          "name": "",
          "type": "uint256"
        }
      ],
      "stateMutability": "view",
      "type": "function"
    },
    {
      "inputs": [
        {
          "internalType": "uint256",
          "name": "num",
          "type": "uint256"
        }
      ],
      "name": "store",
      "outputs": [],
      "stateMutability": "nonpayable",
      "type": "function"
    }
  ],
  "bytecode": {
    "object": "0x608060405234801561001057600080fd5b5061057e806100206000396000f3fe608060405234801561001057600080fd5b50600436106100575760003560e01c80632e64cec11461005c5780632ebce631146100735780636057361d146100945780638bab8dd5146100a9578063bc832d4e146100d4575b600080fd5b6000545b6040519081526020015b60405180910390f35b610086610081366004610245565b6100e7565b60405161006a929190610282565b6100a76100a2366004610245565b600055565b005b6100606100b736600461035f565b805160208183018101805160038252928201919093012091525481565b6100a76100e236600461039c565b61019f565b600281815481106100f757600080fd5b6000918252602090912060029091020180546001820180549193509061011c906103e3565b80601f0160208091040260200160405190810160405280929190818152602001828054610148906103e3565b80156101955780601f1061016a57610100808354040283529160200191610195565b820191906000526020600020905b81548152906001019060200180831161017857829003601f168201915b5050505050905082565b6040805180820190915282815260208101828152600280546001810182556000829052835191027f405787fa12a823e0f2b7631cc41b3ba8828b3321ca811111fa75cd3aa3bb5ace8101918255915190917f405787fa12a823e0f2b7631cc41b3ba8828b3321ca811111fa75cd3aa3bb5acf019061021d908261046c565b50505081600382604051610231919061052c565b908152604051908190036020019020555050565b60006020828403121561025757600080fd5b5035919050565b60005b83811015610279578181015183820152602001610261565b50506000910152565b82815260406020820152600082518060408401526102a781606085016020870161025e565b601f01601f1916919091016060019392505050565b634e487b7160e01b600052604160045260246000fd5b600082601f8301126102e357600080fd5b813567ffffffffffffffff808211156102fe576102fe6102bc565b604051601f8301601f19908116603f01168101908282118183101715610326576103266102bc565b8160405283815286602085880101111561033f57600080fd5b836020870160208301376000602085830101528094505050505092915050565b60006020828403121561037157600080fd5b813567ffffffffffffffff81111561038857600080fd5b610394848285016102d2565b949350505050565b600080604083850312156103af57600080fd5b82359150602083013567ffffffffffffffff8111156103cd57600080fd5b6103d9858286016102d2565b9150509250929050565b600181811c908216806103f757607f821691505b60208210810361041757634e487b7160e01b600052602260045260246000fd5b50919050565b601f82111561046757600081815260208120601f850160051c810160208610156104445750805b601f850160051c820191505b8181101561046357828155600101610450565b5050505b505050565b815167ffffffffffffffff811115610486576104866102bc565b61049a8161049484546103e3565b8461041d565b602080601f8311600181146104cf57600084156104b75750858301515b600019600386901b1c1916600185901b178555610463565b600085815260208120601f198616915b828110156104fe578886015182559484019460019091019084016104df565b508582101561051c5787850151600019600388901b60f8161c191681555b5050505050600190811b01905550565b6000825161053e81846020870161025e565b919091019291505056fea26469706673582212209b66b9fa9a590705507744039ca1659fb42aea7808410eae9cae9d0e3da1a01764736f6c63430008130033",
    "linkReferences": {}
  },
  "methodIdentifiers": {
    "addPerson(uint256,string)": "bc832d4e",
    "listOfPeople(uint256)": "2ebce631",
    "nameToFavoriteNumber(string)": "8bab8dd5",
    "retrieve()": "2e64cec1",
    "store(uint256)": "6057361d"
  },
  "id": 0
}